:020000040800F2
:10000000F806002091010008311E0008811D00083B
:100010002D1E000801040008451E00080000000015
:10002000000000000000000000000000391E000871
:10003000F909000800000000351E00083D1E0008F8
:10004000AB010008AB010008AB010008AB010008E0
:10005000AB010008AB010008AB010008AB010008D0
:10006000AB010008AB010008AB010008AB010008C0
:10007000AB010008AB010008AB010008AB010008B0
:10008000AB010008AB010008AB010008AB010008A0
:10009000AB010008AB010008AB010008AB01000890
:1000A000AB010008AB010008AB010008AB01000880
:1000B000AB010008AB010008AB010008AB01000870
:1000C000AB010008AB010008AB010008AB01000860
:1000D000AB010008AB010008AB010008AB01000850
:1000E000AB010008AB010008AB01000800F002F80A
:1000F00000F03FF80AA090E8000C82448344AAF183
:100100000107DA4501D100F034F8AFF2090EBAE880
:100110000F0013F0010F18BFFB1A43F0010318473B
:100120009C220000BC220000103A24BF78C878C18D
:10013000FAD8520724BF30C830C144BF04680C60ED
:10014000704700000023002400250026103A28BF35
:1001500078C1FBD8520728BF30C148BF0B60704739
:10016000642900F03580002070471FB51FBD10B511
:1001700010BD00F00BF91146FFF7F7FF01F034FF57
:1001800000F029F903B4FFF7F2FF03BC00F030F9E7
:100190000948804709480047FEE7FEE7FEE7FEE71B
:1001A000FEE7FEE7FEE7FEE7FEE7FEE70448054957
:1001B000054A064B70470000411E0008ED0000088C
:1001C000F8000020F8060020F8020020F8020020C5
:1001D0002DE9F0410646002410687529314616A520
:1001E00010D0AFF30080002802DA404213A507E0E8
:1001F00031688A0701D512A502E0490704D511A587
:10020000012401E0AFF3008000210A2206F1240757
:1002100009E0B0FBF2FCB0FBF2F302FB1C00303053
:1002200078541846491C0028F3D123462A46304604
:10023000BDE8F04100F051B8000000002D000000C2
:100240002B0000002000000010B5431C02E010F855
:10025000011B71B18107FAD14FF0013202C88C1A2B
:100260008C4314EAC211F9D0C01A0A0603D0C01E8A
:1002700010BDC01A10BD0A0401D0801E10BD0902B5
:10028000FCD0401E10BD4FF0000200B5134694464E
:100290009646203922BFA0E80C50A0E80C50B1F1DE
:1002A0002001BFF4F7AF090728BFA0E80C5048BFF2
:1002B0000CC05DF804EB890028BF40F8042B08BF90
:1002C000704748BF20F8022B11F0804F18BF00F88C
:1002D000012B70477047704770472DE9F0470D4676
:1002E00099469246044600F124080168880604D520
:1002F000E06921F01001216000E00120A84201DD49
:10030000471B00E00027A1697A1902EB0900081ACF
:10031000A0612078C00602D42046AFF300800026FA
:1003200008E0D4E901211AF806009047206A401C31
:10033000761C20624E45F4DB2078C0060AD52046A4
:10034000AFF3008006E0D4E9012130209047206A15
:10035000401C2062381EA7F10107F4DC07E0D4E955
:10036000012118F805009047206A401C2062281ED1
:10037000A5F10105F3DC2046AFF3008020780006EC
:1003800002D50220BDE8F0870120FBE7754600F0AA
:100390002BF8AE4605006946534620F00700854617
:1003A00018B020B5FFF702FFBDE820404FF000066F
:1003B0004FF000074FF000084FF0000BAC46ACE8E0
:1003C000C009ACE8C009ACE8C009ACE8C00921F03C
:1003D00007018D46704710B50446AFF300802046F4
:1003E000BDE81040FFF7CEBE00487047180000205F
:1003F00001491820ABBEFEE726000200704700004E
:10040000FEE700002DE9F04F8FB00DF1080CDDE99B
:1004100018678CE8CF0040F2C800C2F2000000214B
:1004200002AC47F6004B01702046C0F6000B01F00D
:10043000A9FC40F27E0740F20008C2F200070DF16D
:10044000200A0DF10206C2F200084FF000091AE07E
:10045000204601F097FC20460021002201F0A6FC76
:1004600042F2AC312046C0F6000101F0C9FC002088
:1004700030704FF4487000F0B1FBB9F1000F0DF18E
:10048000020640F0338120460021002201F08EFC5C
:1004900020469BA101F0B4FC00F044F941283870DB
:1004A0002DD102AE4FCE0DF1200C8CE80F0040F2A2
:1004B000C801C2F200010878079D0C960D9540B165
:1004C000013840F278020870C1B2C2F20002114451
:1004D00005E00020087040F27801C2F2000100221D
:1004E0000A70C2B25046012101F060FC42F2AA310A
:1004F0005046C0F6000101F083FC0DF10206387889
:10050000422800F0F68040F2C805C2F200052978C2
:10051000CAB2052A04D8002818BF412840F0D1806B
:1005200038784428A9D1002028709BF800104FF09B
:10053000FF3200BF40EA0B03561CFF2908BF06EB41
:1005400008031B78524453700230052E3246F1D115
:10055000002000210DF10206325C1AF80030013053
:100560009A4208BF01310628F6D1C8B240F2C80647
:100570000628C2F200067FF46BAF002030702046E0
:1005800001F000FC0BE000BF00F0A8FB204601F0EA
:10059000F9FB4FF00109B9F1000F7FF46EAF20466F
:1005A0000021002201F002FC20465AA101F028FCA3
:1005B00000F0B8F8412838702ED102AB0FCBBC4602
:1005C000274634460DF1200E8EE80F002078DDE935
:1005D00006650C960D9540B1013840F27802C1B223
:1005E000C2F200022070114405E040F278010020C0
:1005F000C2F20001207000220A70C2B250460121EE
:1006000026463C46674601F0D1FB42F2AA315046ED
:10061000C0F6000101F0F4FB3878422862D031784E
:10062000CAB2052A16D8A0F14101032901D801292F
:1006300010D178B12046012101F0B8FB204639469F
:1006400001F0DEFB387831780DF102025054481C7D
:10065000307000BF387844289DD1307806289AD170
:1006600000F09CFBDDF80200BDF80610C8F80000A1
:10067000A8F8041000F092FB012000250B900990CF
:1006800050460EA90895CDF828B00E9500F0BAFA9C
:1006900000F024FB00F082FBC14600BF99F8002067
:1006A00045EA0B010120002300F022FB00287FF423
:1006B0006BAF02350C2D09F10109EFD100F00EFBF3
:1006C00062E743283FF42CAF2046012101F06EFB86
:1006D0002046394601F094FB387829787054481C3C
:1006E00028701DE7204601F04DFBC6E60FB0BDE8BF
:1006F000F08F02A801F046FB0FB0BDE8F08F00BFFD
:1007000043757272656E742070617373776F726473
:100710003A0000004E65772070617373776F7264E2
:100720003A000000B0B540F60044C4F20104A4F55C
:10073000806528464FF48071012200F04DFC284668
:100740004FF40071002200F047FC28464FF480610E
:10075000002200F041FC28464FF40061002200F026
:100760003BFC20464FF4004100F030FC48B100BF94
:1007700020464FF4004100F029FC0028F8D1412028
:10078000B0BD20464FF4804100F020FC48B100BFCE
:1007900020464FF4804100F019FC0028F8D13320A6
:1007A000B0BD20464FF4005100F010FC48B100BF2E
:1007B00020464FF4005100F009FC0028F8D1322007
:1007C000B0BD20464FF4805100F000FC48B100BF9E
:1007D00020464FF4805100F0F9FB0028F8D1312079
:1007E000B0BD28464FF48071002200F0F5FB28468A
:1007F0004FF40071012200F0EFFB28464FF48061B6
:10080000002200F0E9FB28464FF40061002200F0CE
:10081000E3FB20464FF4004100F0D8FB50B100BF8D
:1008200020464FF4004100F0D1FB00284FF0420079
:10083000F6D1DEE020464FF4804100F0C7FB48B11E
:1008400020464FF4804100F0C1FB00284FF03600F5
:10085000F6D1CEE020464FF4005100F0B7FB48B18E
:1008600020464FF4005100F0B1FB00284FF0350056
:10087000F6D1BEE020464FF4805100F0A7FB48B10E
:1008800020464FF4805100F0A1FB00284FF03400C7
:10089000F6D1AEE028464FF48071002200F09CFBB8
:1008A00028464FF40071002200F096FB28464FF4D2
:1008B0008061012200F090FB28464FF40061002285
:1008C00000F08AFB20464FF4004100F07FFB48B166
:1008D00020464FF4004100F079FB00284FF0430020
:1008E000F6D186E020464FF4804100F06FFB48B11E
:1008F00020464FF4804100F069FB00284FF039009A
:10090000F6D176E020464FF4005100F05FFB48B18D
:1009100020464FF4005100F059FB00284FF03800FA
:10092000F6D166E020464FF4805100F04FFB48B10D
:1009300020464FF4805100F049FB00284FF037006B
:10094000F6D156E028464FF48071002200F044FBB7
:1009500028464FF40071002200F03EFB28464FF479
:100960008061002200F038FB28464FF4006101222C
:1009700000F032FB20464FF4004100F027FB48B165
:1009800020464FF4004100F021FB00284FF04400C6
:10099000F6D12EE020464FF4804100F017FB48B11D
:1009A00020464FF4804100F011FB00284FF0230057
:1009B000F6D11EE020464FF4005100F007FB48B18D
:1009C00020464FF4005100F001FB00284FF03000AA
:1009D000F6D10EE020464FF4805100F0F7FA48B10E
:1009E00020464FF4805100F0F1FA00284FF02A0021
:1009F000F6D1B0BD0020B0BD704700002DE9F04138
:100A000088B040F2C808DDE90E5747F600468DE889
:100A1000AF00C2F200080021C0F6000688F80010FE
:100A2000327840F200054FF0FF33C2F200050DF1BD
:100A30001A0000BF41EA06045F1CFF2A08BF7C19A8
:100A4000247803445C700231052F3B46F2D140F21A
:100A500078060021C2F20006002200BF735C475CEA
:100A60000131BB4208BF01320629F7D16C4620464E
:100A7000D7B201F087F9204600210022002401F0BE
:100A800095F9062F33D122A1684601F0B9F94FF448
:100A90007A7000F0A3F888F8004040F28004C8277C
:100AA000C2F20004206832378763032000F096F812
:100AB000B7F5966FF6D34FF47A7000F08FF840F2E6
:100AC000145700BF2068323F8763032000F086F888
:100AD000B7F5967FF6D80020B08030604FF0303008
:100AE000286043F23000A88008B0BDE8F08142F2EF
:100AF000AC31C0F60001684601F082F94FF47A701B
:100B000088F8004000F06AF808B0BDE8F08100BF46
:100B100054484520444F4F52204F50454E454400C5
:100B2000F0B581B042F20C060446C4F2020600F0B1
:100B300059FA3168C90715D13068800644BF2020B2
:100B400030603068C00608D43069C00705D130680D
:100B5000400702D4002001B0F0BD3068C00608D4C0
:100B600000200FE00546671C2CD084BB032001B099
:100B7000F0BD40F2D000C2F20000C16941F00201B4
:100B8000C16110203168490709D540F2D001C2F295
:100B90000001CA6940F0040042F00102CA613169F3
:100BA000C9070BD040F2D001C2F20001CA6942F07D
:100BB0000402CA61316921F0010131613060012014
:100BC00001B0F0BD3068C007B6D0002FFAD000F0F9
:100BD00009FA401BA042F5D9C8E70000B0B50446A9
:100BE00000F000FA054640F20C00C2F20000007866
:100BF000611C18BF044400BF00F0F4F9401BA04280
:100C0000FAD3B0BD2DE9F04381B040F2D006C2F274
:100C10000006327E012A03D1022001B0BDE8F08334
:100C2000054601202C6830764CF250308846FFF79C
:100C300077FF022C02D120B101204AE0C0B101208F
:100C400047E0002042F21004F061C4F20204206880
:100C500040F004002060206840F0400020604CF22A
:100C60005030FFF75DFF216821F00401216030E082
:100C70004FF0FF30C8F80000D5E9027007EB802084
:100C8000874222D242F21004C4F202044FF000095B
:100C9000C6F81C90206840F0020020606760206861
:100CA00040F0400020604CF25030FFF739FF2168DF
:100CB00021F00201216050B9D5E9021207F58067E1
:100CC00001EB82218F42E3D303E0012001E0C8F869
:100CD00000700021317601B0BDE8F08342F21001CE
:100CE000C4F20201086840F0800200200A607047E8
:100CF0002DE9F04F81B040F2D009C2F200099246CE
:100D000099F81820012A03D1022001B0BDE8F08F24
:100D10008046012089F818004CF250309B460E4660
:100D2000FFF7FEFEA0BB404642F21007B8F1020FEB
:100D300018BF0420C4F20207B8F1010F08BF4046F3
:100D400045424FF000080024C4F12001C9F81C807E
:100D50002AFA04F00BFA01F13A680843B4F12001D1
:100D600058BF2BFA01F042F00101396026F8020B5E
:100D70004CF25030FFF7D4FE3968013521F0010202
:100D800048F100013A6018B9002904F11004DBD0E1
:100D9000002189F8181001B0BDE8F08F42F204007C
:100DA000C4F20200C16809065CBF0020704740F22F
:100DB0002311C4F26751016048F6AB11CCF6EF5134
:100DC0000160C068C0B2C009704700002DE9F04F53
:100DD00082B00E68002E00F0F68041F20042C4F2AC
:100DE0000102042340F2004E904208BF03234FF655
:100DF000FF7CC4F2010E009300240123C1F2100C09
:100E00004FF0000A4FF0000943E0012704F00C0303
:100E10000F229A402BEA020207FA03F34FEA9A05DF
:100E20001A4346F825204E6840F20C45F202DEF8DF
:100E3000082054BF22EA080242EA0802C4F201056F
:100E4000CEF808202A68B30254BF22EA080242EA18
:100E500008022A60B303DEF8042054BF22EA080225
:100E600042EA0802F303CEF80420DEF800204FF037
:100E7000010354BF22EA080242EA0802CEF8002029
:100E80000E680AF1010A36FA0AF204F1040400F0CD
:100E90009A8003FA0AFB16EA0B08F1D04E68664501
:100EA00010DC122E50D8DFE806F0330A41454F4FD0
:100EB0004F4F4F4F4F4F4F4F4F4F4F484C00D1F870
:100EC0000C9041E04FF6FF72C1F2210296420FDC16
:100ED0000022C1F2110296421AD00022C1F212027F
:100EE000964215D00022C1F22102964210D02BE08A
:100EF0000022C1F2220296420AD00022C1F231023F
:100F0000964205D00022C1F2320296421CD100BFA7
:100F10008A6842B1012A14BFC0F814B0C0F810B0FA
:100F20004FF0080910E04FF004090DE0CA6802F123
:100F3000080909E04FF0000906E0CA6802F1040957
:100F400002E0CA6802F10C0922460646B8F5807F25
:100F500024BF203A043637680F25954027EA050557
:100F600009FA02F22A433260CA79D2067FF588AFC5
:100F700041F21803C4F202031A68AEF57E7642F01D
:100F800001021A601A6802F001020192019A2AF025
:100F9000030256F802B040F60002C4F20102904289
:100FA0000FD040F60042C4F2010290423FF42DAF50
:100FB00041F20002C4F20102009F904208BF0227E2
:100FC00024E7002722E702B0BDE8F08F80680840E0
:100FD00018BF012070470000002A08BF0904016102
:100FE0007047000040F2F000C2F200000068704755
:100FF00040F20C0040F2F001C2F20000C2F2000127
:1010000000780A68104408607047000080B542F21A
:101010000000C4F20200016841F0100101600320E9
:1010200000F07EF80F2000F005F800F02BF800200B
:1010300080BD0000B0B540F20C02C2F2000240F2E6
:1010400008011278C2F200014FF47A730968B3FB09
:10105000F2F20446B1FBF2F1084600F0E7FA0F2C79
:101060004FF001050CD858B94FF0FF30214600224F
:10107000002500F029F840F21000C2F200000460E0
:101080002846B0BD82B041F21800C4F202000168E7
:10109000022241F001010160016801F001010191AA
:1010A0000199416841F080514160406800F08050F2
:1010B000009000980420C4F20100016862F31A61F4
:1010C000016002B07047000010B54EF60C5CCEF225
:1010D000000CDCF80030C3F3022E8EF00704042C61
:1010E00028BF0424BEF103034FF0FF3E0EFA04F4C0
:1010F00038BF0023A14399400EFA03F39A431143EA
:1011000000F1604200F00F03090102F56442043B64
:101110006344002848BF03F10C02117010BD0000A9
:101120004EF60C51CEF200010A684FF6FF031A404A
:1011300060F30A2242F0806040F0FD700860704762
:101140002DE9F04381B0002800F0858042F20008CC
:10115000C4F202080446D8F800000D4600F007006B
:1011600088420CD2D8F8000020F007002843C8F8C5
:101170000000D8F8000000F00700A8426BD12068FA
:1011800041F204098107C4F2020917D5410705D5C8
:10119000D9F8001041F4E061C9F80010010705D545
:1011A000D9F8001041F46051C9F80010D9F80010C6
:1011B000A26821F0F0011143C9F80010C00741D125
:1011C000D8F8000000F00700A8420CD9D8F80000B9
:1011D00020F007002843C8F80000D8F8000000F00D
:1011E0000700A84237D12068410707D5D9F8001079
:1011F000E26821F4E0611143C9F80010000708D546
:10120000D9F80000216920F4605040EAC100C9F813
:101210000000D9F8002002F00C00082841F200205C
:10122000C0F27A004ED142F29A33C2F38341C0F643
:101230000003595CD20339D440F60010C0F23D00DF
:1012400048433FE06068022809D0012829D159F8B5
:10125000041C890307D4012001B0BDE8F08359F8CC
:10126000041C8901F7D5D9F8001021F003010843C7
:10127000C9F80000FFF7B6FE064641F2883700BF06
:10128000D9F80000616800F00C00B0EB810F97D036
:10129000FFF7A8FE801BB842F2D9032001B0BDE8D9
:1012A000F08359F8041C8907D5D5DCE7D9F800206C
:1012B00042F29433C2F34042C0F600039A5C4843C2
:1012C000B0FBF2F0D9F8001042F28432C1F30311FE
:1012D000C0F60002515C40F2080220FA01F140F22F
:1012E0001000C2F200000068C2F200021160FFF7B5
:1012F000A1FE002001B0BDE8F08300002DE9F0411F
:1013000082B0002800F0D7800446007841F2000641
:10131000C007C4F2020644D0706800F00C00042834
:1013200017D0706800F00C00082802D17068C00364
:101330000FD465682DB1B5F5A02F10D0B5F5803F5D
:1013400011D0306820F480303060306820F4802084
:101350000CE03068800324D5606810BBABE03068D7
:1013600040F480203060306840F480303060FFF717
:1013700039FE002D054611D03068800311D4FFF7E7
:1013800031FE401B6428F7D916E100BFFFF72AFEA3
:10139000401B64284FF0030000F28A80306880030D
:1013A000F4D42078800718D5706810F00C0F07D09F
:1013B000706800F00C00082827D17068C00324D49E
:1013C0003068800702D52069012874D130686169CE
:1013D00020F0F80040EAC1003060207800074FD5C7
:1013E000A06940B30020C4F242200121C0F880145B
:1013F000FFF7F8FD054600BF706A80072DD4FFF7A0
:10140000F1FD401B0228F7D9D6E02069002840F200
:101410000000C4F2422000F0A68001210160FFF725
:10142000E1FD054630688007D0D4FFF7DBFD401BA7
:101430000228F7D9C0E00020C4F242200021C0F801
:101440008014FFF7CFFD0546706A800718D5FFF7B7
:10145000C9FD401B0228F7D9AEE040F20800C2F2F5
:101460000000006844F6D351C1F26201A0FB010103
:10147000480A019000BF0198411E00280191F9D14E
:10148000207840071BD4E5698DB1706800F00C002E
:10149000082846D1012D0ED07068216A00F48032F0
:1014A0008A4208D1616A00F47010884203D100209A
:1014B00002B0BDE8F081012002B0BDE8F081F06922
:1014C00010F0805808D1F06940F08050F061F06968
:1014D00000F080500090009847F20007C4F2000727
:1014E0003868C0050FD4386840F480703860FFF762
:1014F00079FD05463868C00505D4FFF773FD401B2C
:101500006428F7D958E0E5681DB1052D3CD0012DC0
:101510003ED0306A20F001003062306A20F00400D2
:1015200039E00027C4F2422700203866FFF75AFD51
:10153000022D05460CD100BF3068800154D5FFF75D
:1015400051FD401B02284FF00300F5D9B0E700BF62
:1015500030688001ABD5FFF745FD401B02284FF0F6
:101560000300F5D9A4E700210160FFF73BFD054624
:10157000306880077FF531AFFFF734FD401B02284C
:101580004FF00300F4D993E7306A40F00400306272
:10159000306A40F001003062FFF724FD002D05465F
:1015A00041F2883714D000BF306A800713D4FFF7A8
:1015B00019FD401BB842F7D9032002B0BDE8F08105
:1015C000FFF710FD401BB8424FF003003FF670AF2D
:1015D000306A8007F4D4B8F1000F7FF454AFF0699B
:1015E00020F08050F0614EE7206AB0F5803F05D1D1
:1015F0007168A26821F40031114371607168626AF8
:1016000021F4741111430843706001203866FFF71C
:10161000E9FC0446306880013FF549AFFFF7E2FC82
:10162000001B02284FF00300F4D941E7411E0020BF
:10163000B0EB116F1CBF012070474EF21002CEF2CA
:10164000000251604EF62351CEF20001F0230B70E0
:10165000072190601160704710B590F83C20012A76
:101660004FF0020231D0012380F83C3080F83D2059
:101670000268D2F804E0D2F808C00C682EF07003BB
:10168000234340F2FF74C4F20004A242536005DC1D
:10169000B2F1804F0ED040F2004307E042F6004323
:1016A000C4F201039A4205D040F60003C4F20003DD
:1016B0009A4204D149682CF08003194391600121BA
:1016C000002280F83D1080F83C20104610BD00003C
:1016D000002804BF0120704710B5044690F83D0073
:1016E00028B9002084F83C00204600F05DF8022074
:1016F00084F83D00206840F2FF730268C4F20003E2
:1017000042F6004C9842C4F2010C05DCB0F1804F67
:101710000AD040F2004103E0604505D040F60001E8
:10172000C4F20001884203D1A16822F070020A438A
:10173000984205DCB0F1804F0AD040F2004103E04E
:10174000604505D040F60001C4F20001884203D193
:10175000216922F440720A43A36922F08001D4F87F
:1017600004E0E268194360450160C262C0F828E005
:1017700002D16169CCF8301001214161002084F868
:10178000461084F83E1084F83F1084F8401084F826
:10179000411084F8421084F8431084F8441084F80F
:1017A000451084F83D1010BD81B00068B0F1804F45
:1017B00001D001B0704741F21C00C4F20200016880
:1017C00041F001010160006800F001000090009804
:1017D00001B0704780B590F83C20012A4FF002021A
:1017E00000F0C280012380F83C3080F83D20D0F822
:1017F00000C04FF67772DCF8083023EA0202CCF81A
:1018000008200B684F2B28DC1F2B43DD202B44D0F6
:10181000302B42D0402B40F0A980D1F804E0C968B9
:10182000DCF82030DCF8202022F00102CCF8202067
:10183000DCF8182022F0F00242EA011123F00A023B
:1018400042EA0E02CCF81810CCF82020DCF8081080
:1018500041F0470121F030017DE06F2B25DDB3F52C
:10186000005F46D0B3F5805F77D0702B7ED1D1E991
:1018700001E3C968DCF8082043EA0E0322F47F4242
:1018800043EA01211143CCF80810DCF8081041F0BC
:10189000770160E00BB1102B68D1DCF8081021F063
:1018A0007001194341F0070155E0502B34D0602BF3
:1018B0005CD1D1F804E0C968DCF82030DCF82020E5
:1018C00022F01002CCF82020DCF8182022F470421C
:1018D00042EA013123F0A00242EA0E12CCF81810BD
:1018E000CCF82020DCF8081041F0670121F010014D
:1018F00031E0D1E901E3C968DCF8082043EA0E03CE
:1019000022F47F4243EA01211143CCF80810DCF8AD
:10191000081041F480411EE0D1F804E0C968DCF809
:101920002030DCF8202022F00102CCF82020DCF866
:10193000182022F0F00242EA011123F00A0242EAE2
:101940000E02CCF81810CCF82020DCF8081041F07A
:10195000570121F02001CCF808100022012180F865
:101960003D10002180F83C10104680BD0122F5E7B3
:1019700080B586B00068B0F1804F4FF00000CDE92F
:101980000400CDE9020001D006B080BD41F218008C
:10199000C4F20200016841F008010160006802A978
:1019A00000F00800019001980820029002200390A6
:1019B000059040F60040C4F20100FFF707FA04204A
:1019C000C4F2010001684FF6FF42CFF6FF0211405A
:1019D00041F0E06141F48071016006B080BD00001B
:1019E0002DE9F04190F83C30012B04BF0220BDE806
:1019F000F0814FEAB2020123032A80F83C3000F262
:101A0000E980DFE802F0023A77B3036842F6004764
:101A10001E6A1A6AC4F2010722F001021A621A460B
:101A20005C6852F818CF8D6826F00206BB4245EA82
:101A3000060E06D1CD682EF00C0625F0040545EA09
:101A4000060E0E68BB4205D1D1E9055724F4407457
:101A50002C433C432CF0730737435C609F614F6815
:101A600009695F63C3F820E09F6947F008079F6139
:101A70009F6927F004079F61A8E0036842F60045CC
:101A80001C6A1A6AC4F2010522F010021A621A4690
:101A9000D3F804C052F818EF8E6824F02004AB424B
:101AA00044EA061407D1CE686FF0400724F0C00462
:101AB00007EA061634430E68AB4207D1D1E9058721
:101AC0002CF4406547EA080745EA870C2EF4E64700
:101AD00047EA0627C3F804C09F614F6809699F63FE
:101AE0001C629F6947F400679F619F6927F48067C4
:101AF0009F616AE0036842F600451C6A1A6AC4F2F4
:101B0000010522F480721A621A46D3F804C052F812
:101B10001CEF8E6824F40074AB4244EA062407D11B
:101B2000CE6840F2FF47360224F44064BE4334439B
:101B30000E68AB4207D1D1E905872CF4405547EA3E
:101B4000080745EA071C2EF073073743C3F804C0A3
:101B5000DF614F680969DF631C62DF6947F00807CE
:101B6000DF61DF6927F00407DF612FE0036842F6D9
:101B70000047D3F820C01A6AC4F2010722F4805249
:101B80001A621A465C6852F81C5FD1F800E08E6851
:101B9000BB4204D14F6924F4804444EA87142CF4F6
:101BA000005747EA063725F4E64646EA0E265C600B
:101BB000DE614E6809691E641F62DF6947F40067D1
:101BC000DF61DF6927F48067DF6109021368194369
:101BD00000231160002180F83C101846BDE8F08118
:101BE000002804BF0120704710B5044690F83D005E
:101BF00028B9002084F83C00204600F05DF802205F
:101C000084F83D00206840F2FF730268C4F20003CC
:101C100042F6004C9842C4F2010C05DCB0F1804F52
:101C20000AD040F2004103E0604505D040F60001D3
:101C3000C4F20001884203D1A16822F070020A4375
:101C4000984205DCB0F1804F0AD040F2004103E039
:101C5000604505D040F60001C4F20001884203D17E
:101C6000216922F440720A43A36922F08001D4F86A
:101C700004E0E268194360450160C262C0F828E0F0
:101C800002D16169CCF8301001214161002084F853
:101C9000461084F83E1084F83F1084F8401084F811
:101CA000411084F8421084F8431084F8441084F8FA
:101CB000451084F83D1010BD7047000041B108295F
:101CC00009D0042914BF00F1410200F13F0204E0F1
:101CD00000F13E0201E000F140021278012A1CBF2F
:101CE00001207047022241B1082909D0042914BFFC
:101CF00080F8412080F83F2004E080F83E2001E099
:101D000080F84020006801F01F010122036A8A4028
:101D100023EA02010162036A42F64441C4F201016E
:101D20001A43A1F144039842026203D10A6842F4C3
:101D300000420A6040F2FF71C4F20001884205DCF3
:101D4000B0F1804F0ED040F2004107E042F6004172
:101D5000C4F20101884205D040F60001C4F200013E
:101D6000884206D1816801F00701062904BF0020DE
:101D70007047016841F001010160002070470000D8
:101D8000FEE70000012100F05FB80000B0B5DDE91A
:101D900004CEDDE90654C0F810E084758582A0F811
:101DA0000CC080E80E0000F00BF8B0BD42F2963394
:101DB000C0F60003595C11448039C9B200F044B840
:101DC00010B50446807D08B1382108E02046332153
:101DD00000F03AF82046322100F036F8282120465B
:101DE00000F032F82046012100F02EF820460C21A8
:101DF00000F02AF820460621BDE8104000F024B883
:101E0000F0B581B00C46097869B105460027002677
:101E1000E15D284600F080F801362046F7B2FEF773
:101E200013FAB842F4D801B0F0BD0000FEE700009C
:101E3000FEE700007047000070470000FFF7D8B8C9
:101E400070470000FEE700002DE9F0410446A2893A
:101E500080680D4611460022FFF7BEF8A07DA8B1AC
:101E6000002600BFD4E9000125FA06F250F826004A
:101E700031F8161002F00102FFF7AEF80136082E15
:101E8000F0D104F1100604F1140834E02E09002703
:101E9000D4E9000126FA07F250F8270031F81710AC
:101EA00002F00102FFF798F80137042FF0D126461F
:101EB00056F8100F0122B04638F8041FFFF78CF8CF
:101EC0000120FEF78BFE3068B8F8001000220027D2
:101ED000FFF782F805F00F05D4E9000125FA07F2B3
:101EE00050F8270031F8171002F00102FFF774F8DC
:101EF0000137042FF0D13068B8F800100122FFF745
:101F00006BF80120FEF76AFE3068B8F80010002276
:101F1000BDE8F041FFF760B82DE9F0410446A28921
:101F200080680D4611460122FFF756F8A07DA8B142
:101F3000002600BFD4E9000125FA06F250F8260079
:101F400031F8161002F00102FFF746F80136082EAC
:101F5000F0D104F1100604F1140834E02E09002732
:101F6000D4E9000126FA07F250F8270031F81710DB
:101F700002F00102FFF730F80137042FF0D12646B6
:101F800056F8100F0122B04638F8041FFFF724F866
:101F90000120FEF723FE3068B8F800100022002769
:101FA000FFF71AF805F00F05D4E9000125FA07F24A
:101FB00050F8270031F8171002F00102FFF70CF873
:101FC0000137042FF0D13068B8F800100122FFF774
:101FD00003F80120FEF702FE3068B8F80010002276
:101FE000BDE8F041FEF7F8BF9AB0FFF70FF810AC6C
:101FF00020462821FEF747F90120109014904FF455
:10200000E01000254FF480310226199020460895F3
:10201000CDE90655CDE90455CDE91115CDE9176196
:10202000FFF76CF918B1EFF3108072B6FEE70F20DE
:10203000CDE904064FF48060CDE9070504A802212C
:102040000695FFF77DF820B1EFF3108072B600BF60
:10205000FEE7002741F21800CDE91277CDE91077AD
:10206000C4F20200016840F6000841F0200101605E
:102070000168C4F2010801F020010491049901688B
:10208000002241F004010160016848F60A7601F07F
:10209000040104910499016841F00801016000689D
:1020A00048F60A7100F00800049004984046FEF7D4
:1020B00093FF08F58064204640F60361002240F655
:1020C0000369FEF789FF109610AE4FF0010A022552
:1020D00040463146CDE911A71395FEF777FE20461D
:1020E0003146CDE9109ACDE91275FEF76FFE4FF437
:1020F0007040CDE91007204631461297FEF766FE84
:1021000040F28000C2F200004FF0804142F20F73B3
:10211000CDE90677CDE90477CDE90C771697CDE9BF
:102120001477CDE91277CDE91077902280E8860008
:10213000C0E903378761FFF7CBFA20B1EFF31080D6
:1021400072B600BFFEE74FF48050049040F280006A
:10215000C2F2000004A9FFF73DFB20B1EFF31080AD
:1021600072B600BFFEE740F28000C2F20000FFF747
:1021700037FD20B1EFF3108072B600BFFEE740F2EA
:1021800080000024C2F200000CA9CDE90C44FFF746
:1021900063FA20B1EFF3108072B600BFFEE7602053
:1021A000CDE9100440F28000C2F2000010A9042220
:1021B00012941494FFF714FC18B1EFF3108072B668
:1021C000FEE740F28004C2F200042046FFF7D0FB95
:1021D00020460421FFF772FD40F60040C4F20100E2
:1021E000CDE90E00CDE90C0040F20040C0F6000041
:1021F0000B900120C0F202000A900820022104ACDA
:102200004FF0000ACDE9001802900CA90AAA204656
:102210004346CDF80CA0FFF7B9FD2046002101226E
:10222000FFF7C4FD4EA12046FFF7EAFD4FF47A7098
:10223000FEF7D4FC2046FFF7A5FD40F27E0640F2F3
:10224000C8080FF22C19C2F20006C2F200080DF104
:10225000400B09E004AF8FCF099DCDE90075FEF773
:10226000D1F888F800A000BF204600210022FFF727
:102270009DFD20464946FFF7C3FDFEF753FA0028AF
:102280003070F1D03220FEF7A9FC307842281BDCF8
:102290000028E9D0412823D104AF8FCF0DF1400CA5
:1022A0008CE80F0098F80000099D002814971595F8
:1022B0003FD0013840F27802C1B2C2F2000288F881
:1022C000000011443CE000BF4328C3D0442807D19C
:1022D00004AF8FCF099DCDE90075FEF78FFBC3E7F3
:1022E00098F80020052ABFD84228BDD020460121F9
:1022F000FFF75CFD307898F8001040F27802C2F2E7
:102300000002505420463146FFF77AFD6420FEF764
:1023100065FC98F8002020460121FFF747FD204684
:1023200017A1FFF76DFD98F80000013088F8000054
:102330009AE740F278010020C2F2000188F800001C
:1023400081F800A0C2B258460121FFF72FFD42F2EA
:10235000AA315846C0F60001FFF752FD84E700BFDE
:1023600057656C636F6D6520486F6D6521210000B6
:10237000456E7465722070617373776F72643A0092
:102380002A00000000000000000000000102030419
:102390000607080901020040105002030405060761
:1023A00008090A0B0C0D0E0F1010200057524F4E4B
:1023B000472050415353574F52440000E023000838
:1023C000000000201800000028010008F823000881
:1023D00018000020E0060000440100080000000092
:1023E00031323334353600000024F400010000009F
:0823F0001000000000000000D5
:04000005080000ED02
:00000001FF
